:1000000041C05BC05AC0E2C158C057C056C055C0BD
:1000100054C053C052C051C050C04FC04EC04DC05C
:100020008BC14BC04AC049C048C047C046C045C04C
:1000300044C043C000000000240027002A00000044
:100040000000250028002B00040404040404040418
:100050000202020202020303030303030102040873
:100060001020408001020408102001020408102022
:100070000000000800020100000304070000000067
:100080000000000011241FBECFEFD4E0DEBFCDBFC3
:1000900011E0A0E0B1E0ECE4F6E002C005900D92C2
:1000A000A830B107D9F721E0A8E0B1E001C01D9266
:1000B000AC31B207E1F79CD1C7C2A2CF90E0FC01FE
:1000C000E059FF4F2491FC01E45AFF4F3491FC01A9
:1000D000E85BFF4FE491EE23C9F0222339F023308F
:1000E00001F1A8F4213019F1223029F1F0E0EE0FEE
:1000F000FF1FE25CFF4FA591B4918FB7F894EC918C
:10010000611126C030953E233C938FBF0895273060
:10011000A9F02830C9F0243049F7809180008F7D04
:1001200003C0809180008F7780938000DFCF84B5FB
:100130008F7784BDDBCF84B58F7DFBCF8091B000FE
:100140008F778093B000D2CF8091B0008F7DF9CFB0
:100150003E2BDACFCF93DF9390E0FC01E45AFF4FC0
:100160002491885B9F4FFC0184918823D1F090E01B
:10017000880F991FFC01EC5CFF4FA591B491FC0125
:10018000E25CFF4FC591D49161110EC09FB7F89406
:100190008C91E22FE0958E238C932881E223E883D3
:1001A0009FBFDF91CF9108958FB7F894EC91E22B28
:1001B000EC938FBFF6CF3FB7F894809109019091EF
:1001C0000A01A0910B01B0910C0126B5A89B05C0B6
:1001D0002F3F19F00196A11DB11D3FBFBA2FA92FC6
:1001E000982F8827BC01CD01620F711D811D911DC3
:1001F00042E0660F771F881F991F4A95D1F708952F
:100200008F929F92AF92BF92CF92DF92EF92FF9226
:100210004B015C01D0DF6B017C01CDDF6C197D09E6
:100220008E099F09683E734081059105B0F321E076
:10023000821A9108A108B10888EEC80E83E0D81E82
:10024000E11CF11C81149104A104B10431F7FF9069
:10025000EF90DF90CF90BF90AF909F908F900895D8
:100260000F931F93CF93DF93EC01162F662371F04A
:1002700060E08BE023DF64E670E080E090E0C0DFC8
:1002800061E08BE067DF60E08BE018DF61E0C0FFDA
:1002900060E088E013DF61E0C1FF60E089E00EDF2D
:1002A00061E0C2FF60E08AE009DF61E0C3FF60E077
:1002B0008FE004DF61E0C4FF60E080E1FFDE809159
:1002C0001101909112018C179D0769F0209769F038
:1002D0006C2F90E080E0AAD1D0931201C09311015D
:1002E00010921B0102C02097D9F7112341F068EC4E
:1002F00070E080E090E084DF60E08BE02BDF01E0E5
:1003000010E0C017D1079CF061E08EE0D7DE66E414
:1003100070E080E090E074DF60E08EE0CFDE6AEFB6
:1003200070E080E090E06CDF0F5F1F4FEACFDF915D
:10033000CF911F910F9108951F920F920FB60F92B8
:1003400011242F933F938F939F93AF93BF938091EB
:100350000D0190910E01A0910F01B091100130910B
:10036000080123E0230F2D3758F50196A11DB11D7B
:100370002093080180930D0190930E01A0930F012B
:10038000B09310018091090190910A01A0910B0195
:10039000B0910C010196A11DB11D809309019093AC
:1003A0000A01A0930B01B0930C01BF91AF919F91F3
:1003B0008F913F912F910F900FBE0F901F90189526
:1003C00026E8230F0296A11DB11DD2CF1F920F92D6
:1003D0000FB60F9211248F9383B185FB882780F984
:1003E000809315018F910F900FBE0F901F9018955D
:1003F000789484B5826084BD84B5816084BD85B500
:10040000826085BD85B5816085BD80916E0081600B
:1004100080936E00109281008091810082608093B1
:1004200081008091810081608093810080918000B3
:100430008160809380008091B10084608093B100DE
:100440008091B00081608093B00080917A008460D8
:1004500080937A0080917A00826080937A00809104
:100460007A00816080937A0080917A00806880931E
:100470007A001092C1001AB860E08BE01FDE61E0E4
:100480008BE068DE60E08DE065DE61E088E062DEE2
:1004900061E089E05FDE61E08AE05CDE61E08FE0E0
:1004A00059DE61E080E156DE61E08EE053DE60E01F
:1004B0008CE050DE60E08EE001DE90E080E0AED0C7
:1004C00090E09093120180931101409724F01092D4
:1004D00012011092110160E08091110190911201BE
:1004E000BFDE60E08BE036DE64EF71E080E090E03C
:1004F00087DE80916B00806280936B00D89A809138
:10050000680081608093680000E010E01C9976C06C
:1005100061E08EE0D3DD80911B0181113DC08091AF
:100520001A01811116C02FB7F89480910D01909196
:100530000E01A0910F01B09110012FBF8093160101
:1005400090931701A0931801B093190181E0809353
:100550001A012FB7F89480910D0190910E01A0918E
:100560000F01B09110012FBF40911601509117015A
:100570006091180170911901841B950BA60BB70BA4
:10058000813D9740A105B10538F081E080931B01C2
:1005900061E090E080E064DE80911501882301F144
:1005A000C9B110921501809113019091140108971F
:1005B00041F48FEF8C0F8F3038F561E08C2F90E095
:1005C0004FDE8091130190911401FC01E050FF4F28
:1005D0002081C2131EC001969093140180931301D1
:1005E0001B9906C060E0809111019091120138DEE4
:1005F0000115110509F48ACF03DD88CF60E08EE094
:100600005DDD10921A01C8CF1092140110921301EF
:10061000D8CF1092140110921301E2CFF999FECFB6
:1006200092BD81BDF89A992780B50895262FF99932
:10063000FECF1FBA92BD81BD20BD0FB6F894FA9AC5
:0C064000F99A0FBE01960895F894FFCFC0
:08064C00524E524F4D3634238B
:00000001FF
