:100000000C945C000C9479000C9479000C9415020B
:100010000C9479000C9479000C9479000C9479007C
:100020000C9479000C9479000C9479000C9479006C
:100030000C9479000C9479000C9479000C9479005C
:100040000C94CB010C9479000C9479000C947900F9
:100050000C9479000C9479000C9479000C9479003C
:100060000C9479000C947900000000002400270013
:100070002A0000000000250028002B0004040404CE
:100080000404040402020202020203030303030342
:10009000010204081020408001020408102001021F
:1000A00004081020000000080002010000030407FB
:1000B000000000000000000011241FBECFEFD8E0B8
:1000C000DEBFCDBF11E0A0E0B1E0E4EDF6E002C09C
:1000D00005900D92A830B107D9F721E0A8E0B1E072
:1000E00001C01D92AC31B207E1F70E9427020C94C7
:1000F00068030C94000090E0FC01EC55FF4F249144
:10010000FC01E057FF4F3491FC01E458FF4FE491AC
:10011000EE23C9F0222339F0233001F1A8F4213075
:1001200019F1223029F1F0E0EE0FFF1FEE58FF4FDA
:10013000A591B4918FB7F894EC91611126C03095D8
:100140003E233C938FBF08952730A9F02830C9F093
:10015000243049F7809180008F7D03C0809180001A
:100160008F7780938000DFCF84B58F7784BDDBCF1E
:1001700084B58F7DFBCF8091B0008F778093B000E6
:10018000D2CF8091B0008F7DF9CF3E2BDACFCF93C5
:10019000DF9390E0FC01E057FF4F249184589F4F7C
:1001A000FC0184918823D1F090E0880F991FFC0115
:1001B000E859FF4FA591B491FC01EE58FF4FC5914E
:1001C000D49161110EC09FB7F8948C91E22FE09505
:1001D0008E238C932881E223E8839FBFDF91CF9108
:1001E00008958FB7F894EC91E22BEC938FBFF6CF84
:1001F0003FB7F8948091090190910A01A0910B01F9
:10020000B0910C0126B5A89B05C02F3F19F00196AF
:10021000A11DB11D3FBFBA2FA92F982F8827BC0160
:10022000CD01620F711D811D911D42E0660F771F88
:10023000881F991F4A95D1F708958F929F92AF9288
:10024000BF92CF92DF92EF92FF924B015C010E942E
:10025000F8006B017C010E94F8006C197D098E0981
:100260009F09683E734081059105A8F321E0821A39
:100270009108A108B10888EEC80E83E0D81EE11CE1
:10028000F11C81149104A104B10429F7FF90EF90AF
:10029000DF90CF90BF90AF909F908F9008950F9375
:1002A0001F93CF93DF93EC01162F662391F060E04C
:1002B0008BE00E947B0064E670E080E090E00E94AA
:1002C0001D0161E08BE00E94C70060E08BE00E94AE
:1002D0007B0061E0C0FF60E088E00E947B0061E09D
:1002E000C1FF60E089E00E947B0061E0C2FF60E046
:1002F0008AE00E947B0061E0C3FF60E08FE00E9423
:100300007B0061E0C4FF60E080E10E947B0080919F
:100310001101909112018C179D0771F0209771F0D7
:100320006C2F90E080E00E945A03D0931201C0939A
:10033000110110921B0102C02097D9F7112351F02F
:1003400068EC70E080E090E00E941D0160E08BE0CE
:100350000E94C70001E010E0C017D107BCF061E0C7
:100360008EE00E947B0066E470E080E090E00E94F6
:100370001D0160E08EE00E947B006AEF70E080E08B
:1003800090E00E941D010F5F1F4FE6CFDF91CF91DC
:100390001F910F9108951F920F920FB60F92112483
:1003A0002F933F938F939F93AF93BF9380910D01B2
:1003B00090910E01A0910F01B091100130910801B0
:1003C00023E0230F2D3758F50196A11DB11D209371
:1003D000080180930D0190930E01A0930F01B0933B
:1003E00010018091090190910A01A0910B01B09137
:1003F0000C010196A11DB11D8093090190930A0182
:10040000A0930B01B0930C01BF91AF919F918F917D
:100410003F912F910F900FBE0F901F90189526E8D7
:10042000230F0296A11DB11DD2CF1F920F920FB6BE
:100430000F9211248F9383B185FB882780F98093D5
:1004400015018F910F900FBE0F901F901895789403
:1004500084B5826084BD84B5816084BD85B58260C9
:1004600085BD85B5816085BD80916E00816080937A
:100470006E001092810080918100826080938100E3
:1004800080918100816080938100809180008160F3
:10049000809380008091B10084608093B10080914E
:1004A000B00081608093B00080917A008460809376
:1004B0007A0080917A00826080937A0080917A003D
:1004C000816080937A0080917A00806880937A00BE
:1004D0001092C1001AB860E08BE00E947B0061E0DE
:1004E0008BE00E94C70060E08DE00E94C70061E0E1
:1004F00088E00E94C70061E089E00E94C70061E0D7
:100500008AE00E94C70061E08FE00E94C70061E0BE
:1005100080E10E94C70061E08EE00E94C70060E0B9
:100520008CE00E94C70060E08EE00E947B0090E0BB
:1005300080E00E94520390E0909312018093110199
:10054000409724F0109212011092110160E0809106
:100550001101909112010E944F0160E08BE00E9416
:10056000C70064EF71E080E090E00E941D0180917F
:100570006B00806280936B00D89A809168008160E4
:100580008093680000E010E01C997BC061E08EE081
:100590000E947B0080911B0181113EC080911A0155
:1005A000811116C02FB7F89480910D0190910E0122
:1005B000A0910F01B09110012FBF8093160190936D
:1005C0001701A0931801B093190181E080931A01DB
:1005D0002FB7F89480910D0190910E01A0910F0119
:1005E000B09110012FBF40911601509117016091F9
:1005F000180170911901841B950BA60BB70B813D57
:100600009740A105B10540F081E080931B0161E0B6
:1006100090E080E00E944F0180911501882309F14C
:10062000C9B110921501809113019091140108979E
:1006300049F48FEF8C0F8F3058F561E08C2F90E0EC
:100640000E944F018091130190911401FC01E05030
:10065000FF4F2081C21321C0019690931401809313
:1006600013011B9907C060E0809111019091120164
:100670000E944F010115110509F486CF0E94000068
:1006800083CF60E08EE00E947B0010921A01C4CFFD
:100690001092140110921301D5CF109214011092F0
:1006A0001301DFCFF999FECF92BD81BDF89A99274A
:1006B00080B50895262FF999FECF1FBA92BD81BD4E
:1006C00020BD0FB6F894FA9AF99A0FBE01960895D4
:0406D000F894FFCFCC
:0806D400524E524F4D36342303
:00000001FF
