:1000000046C060C05FC0B6C05DC05CC05BC05AC0C7
:1000100059C058C057C056C055C054C053C052C034
:10002000FCC150C04FC04EC04DC04CC04BC04AC0B8
:1000300049C048C000000009000302000004050890
:100040000000000000000000000000010204081091
:100050002040800102040810200102040810204002
:1000600080400404040404040404020202020202A4
:10007000030303030303020203000000002500281A
:10008000002B0000000000240027002A000011249B
:100090001FBECFEFD4E0DEBFCDBF11E0A0E0B1E0E6
:1000A000E8E3F7E002C005900D92A231B107D9F75D
:1000B00021E0A2E1B1E001C01D92A732B207E1F751
:1000C00018D338C39DCFEDE6F0E0883060F08E3075
:1000D00090F1843130F0863170F1F0E0E0E086316B
:1000E00011F4ECE6F0E09081883040F541E050E01A
:1000F00060E070E0082E04C0440F551F661F771F94
:100100000A94D2F7492B40832BB394E0883050F007
:1001100091E08E3038F092E0843120F091E0863129
:1001200008F090E0822F892B8BBB80916800982B80
:10013000909368000895EBE6F0E0D5CF482F485043
:10014000550B8E3028F0863180F4482F4E50550BD9
:100150009A0141E050E060E070E004C0440F551F98
:10016000661F771F2A95D2F7CDCF40E4863151F232
:1001700040E0C8CF1F920F920FB60F9211248F93B9
:1001800083B185FB882780F9809319018F910F90A7
:100190000FBE0F901F9018950F931F93CF93DF936F
:1001A000EC01162F662389F060E08091080173D27C
:1001B00064E670E080E090E0ABD161E080910801FE
:1001C0002ED260E08091080166D261E0C0FF60E05D
:1001D00088E061D261E0C1FF60E089E05CD261E06B
:1001E000C2FF60E08AE057D261E0C3FF60E08FE0C9
:1001F00052D261E0C4FF60E080E14DD280911C01E9
:1002000090911D018C179D0769F0209769F06C2F64
:1002100090E080E081D2D0931D01C0931C01109228
:10022000160102C02097D9F7112349F068EC70E05D
:1002300080E090E06DD160E080910801F0D101E0B4
:1002400010E0C017D107ACF061E08091020123D229
:1002500066E470E080E090E05BD160E080910201B4
:100260001AD26AEF70E080E090E052D10F5F1F4F2A
:10027000E8CFDF91CF911F910F9108951AB860E0F8
:100280008091080108D261E080910801C8D160E046
:1002900080910401C4D161E088E0C1D161E089E0CE
:1002A000BED161E08AE0BBD161E08FE0B8D161E00E
:1002B00080E1B5D161E080910201B1D160E080912F
:1002C0000601ADD160E080910201E5D190E080E0CF
:1002D0001BD290E080319105B4F490931D0180937E
:1002E0001C0160E080911C0190911D0155DF60E0D0
:1002F0008091080194D164EF71E080E090E008D132
:1003000080910401E0CE10921D0110921C01E9CFF2
:100310000F931F93CF9393B181E0292F207194FF06
:1003200080E08093180180910201211163C061E097
:10033000B2D180911601811129C0809117018111DC
:100340000CC0B5D060931201709313018093140117
:100350009093150181E080931701A9D000911201BB
:10036000109113012091140130911501601B710B44
:10037000820B930B613D77408105910538F081E058
:100380008093160161E090E080E006DF8091190122
:10039000882329F1C9B11092190120911A013091D5
:1003A0001B0180910001909101012817390741F448
:1003B0008FEF8C0F8F3018F561E08C2F90E0ECDE22
:1003C00080911A0190911B01FC01E65FFE4F208194
:1003D0002C131AC0019690931B0180931A011B994C
:1003E00018C060E080911C0190911D01CF911F9178
:1003F0000F91D2CE60E04FD110921701C7CF10926B
:100400001B0110921A01DCCF10921B0110921A01ED
:10041000E6CFCF911F910F9108951F920F920FB6C3
:100420000F9211242F933F938F939F93AF93BF937A
:100430008091230190912401A0912501B091260182
:100440003091220123E0230F2D3768F126E8230F96
:100450000296A11DB11D2093220180932301909348
:100460002401A0932501B093260180911E01909153
:100470001F01A0912001B09121010196A11DB11D84
:1004800080931E0190931F01A0932001B09321013E
:10049000BF91AF919F918F913F912F910F900FBE80
:1004A0000F901F9018950196A11DB11DD4CF2FB7A5
:1004B000F89460912301709124018091250190911D
:1004C00026012FBF08953FB7F89480911E019091A7
:1004D0001F01A0912001B091210126B5A89B05C064
:1004E0002F3F19F00196A11DB11D3FBFBA2FA92FB3
:1004F000982F8827BC01CD01620F711D811D911DB0
:1005000042E0660F771F881F991F4A95D1F708951B
:100510008F929F92AF92BF92CF92DF92EF92FF9213
:100520006B017C01D0DF4B015C01C114D104E104FB
:10053000F104D9F0E8D0C7DF681979098A099B0965
:10054000683E73408105910580F321E0C21AD1080D
:10055000E108F10888EE880E83E0981EA11CB11C0A
:10056000C114D104E104F10431F7FF90EF90DF9062
:10057000CF90BF90AF909F908F900895789484B55E
:10058000836084BD85B5836085BDEEE6F0E0808143
:1005900081608083E1E8F0E082E080838081816097
:1005A0008083E0E8F0E0808181608083E1EBF0E02F
:1005B000808184608083E0EBF0E0808181608083D3
:1005C00087E880937A001092C1000895843081F00A
:1005D00028F48230E9F08330F9F00895883071F022
:1005E000893091F08530B9F4809180008F7D03C00F
:1005F000809180008F778093800008958091B00073
:100600008F778093B00008958091B0008F7DF9CFEF
:1006100084B58F7784BD089584B58F7DFBCFCF934C
:10062000DF9390E0FC01E55BFF4F24918E599F4FD3
:10063000FC0184918823C9F090E0880F991FFC0188
:10064000ED57FF4FA591B491FC01E758FF4FC591BD
:10065000D49161110DC09FB7F8948C91209582239D
:100660008C938881282328839FBFDF91CF910895A1
:10067000623051F49FB7F8943C91822F8095832388
:100680008C93E8812E2BEFCF8FB7F894EC912E2B23
:100690002C938FBFEACF1F93CF93DF93282F30E0A7
:1006A000F901EC5CFF4F8491F901E55BFF4FD491B8
:1006B000F901EE59FF4FC491CC23A1F0162F8111FF
:1006C00085DFEC2FF0E0EE0FFF1FE758FF4FA591FD
:1006D000B4918FB7F894EC91111108C0D095DE2336
:1006E000DC938FBFDF91CF911F910895DE2BF8CF60
:1006F000089544DFFDDFC2DDC0E0D0E009DE2097D1
:10070000E9F37EDCFBCF0895F999FECF92BD81BD60
:10071000F89A992780B50895262FF999FECF1FBA28
:1007200092BD81BD20BD0FB6F894FA9AF99A0FBE1A
:0807300001960895F894FFCF33
:1007380008000E000D000C000B00524E524F4D36B3
:02074800342358
:00000001FF
