:1000000046C060C05FC0B6C05DC05CC05BC05AC0C7
:1000100059C058C057C056C055C054C053C052C034
:10002000F9C150C04FC04EC04DC04CC04BC04AC0BB
:1000300049C048C000000009000302000004050890
:100040000000000000000000000000010204081091
:100050002040800102040810200102040810204002
:1000600080400404040404040404020202020202A4
:10007000030303030303020203000000002500281A
:10008000002B0000000000240027002A000011249B
:100090001FBECFEFD2E0DEBFCDBF11E0A0E0B1E0E8
:1000A000EEE2F7E002C005900D92A631B107D9F754
:1000B00021E0A6E1B1E001C01D92AB32B207E1F749
:1000C00015D333C39DCFEDE6F0E0883060F08E307D
:1000D00090F1843130F0863170F1F0E0E0E086316B
:1000E00011F4ECE6F0E09081883040F541E050E01A
:1000F00060E070E0082E04C0440F551F661F771F94
:100100000A94D2F7492B40832BB394E0883050F007
:1001100091E08E3038F092E0843120F091E0863129
:1001200008F090E0822F892B8BBB80916800982B80
:10013000909368000895EBE6F0E0D5CF482F485043
:10014000550B8E3028F0863180F4482F4E50550BD9
:100150009A0141E050E060E070E004C0440F551F98
:10016000661F771F2A95D2F7CDCF40E4863151F232
:1001700040E0C8CF1F920F920FB60F9211248F93B9
:1001800083B185FB882780F980931D018F910F90A3
:100190000FBE0F901F9018950F931F93CF93DF936F
:1001A000EC01162F662389F060E08091080170D27F
:1001B00064E670E080E090E0A8D161E08091080101
:1001C0002BD260E08091080163D261E0C0FF60E063
:1001D00089E05ED261E0C1FF60E08AE059D261E06F
:1001E000C2FF60E08FE054D261E0C3FF60E080E1D5
:1001F0004FD280912001909121018C179D0769F0C9
:10020000209769F06C2F90E080E082D2D09321019A
:10021000C093200110921A0102C02097D9F7112330
:1002200049F068EC70E080E090E06FD160E0809190
:100230000801F2D164EF71E080E090E066D101E066
:1002400010E0C017D107ACF061E08091020120D22C
:1002500066E470E080E090E058D160E080910201B7
:1002600017D26AEF70E080E090E04FD10F5F1F4F30
:10027000E8CFDF91CF911F910F9108951AB860E0F8
:100280008091080105D261E080910801C5D160E04C
:1002900080910401C1D161E089E0BED161E08AE0D2
:1002A000BBD161E08FE0B8D161E080E1B5D161E020
:1002B00080910201B1D160E080910601ADD160E092
:1002C00080910201E5D190E080E01BD290E0803186
:1002D0009105B4F4909321018093200160E0809116
:1002E00020019091210158DF60E08091080194D1B4
:1002F00068EE73E080E090E008D180910401E3CEE5
:100300001092210110922001E9CF0F931F93CF93F8
:1003100093B181E0292F207194FF80E080931C012C
:1003200080910201211163C061E0B2D180911A0174
:10033000811129C080911B0181110CC0B5D060933F
:10034000160170931701809318019093190181E0B1
:1003500080931B01A9D000911601109117012091E3
:10036000180130911901601B710B820B930B613DD9
:1003700077408105910538F081E080931A0161E0B2
:1003800090E080E009DF80911D01882329F1C9B147
:1003900010921D0120911E0130911F0180910001DA
:1003A000909101012817390741F48FEF8C0F8F309E
:1003B00018F561E08C2F90E0EFDE80911E019091A6
:1003C0001F01FC01E65FFE4F20812C131AC001962D
:1003D00090931F0180931E011B9918C060E08091CB
:1003E000200190912101CF911F910F91D5CE60E016
:1003F0004FD110921B01C7CF10921F0110921E0106
:10040000DCCF10921F0110921E01E6CFCF911F91F9
:100410000F9108951F920F920FB60F9211242F93F0
:100420003F938F939F93AF93BF93809127019091B8
:100430002801A0912901B0912A013091260123E0E1
:10044000230F2D3768F126E8230F0296A11DB11D59
:10045000209326018093270190932801A0932901DE
:10046000B0932A018091220190912301A09124014F
:10047000B09125010196A11DB11D80932201909399
:100480002301A0932401B0932501BF91AF919F91C7
:100490008F913F912F910F900FBE0F901F90189545
:1004A0000196A11DB11DD4CF2FB7F89460912701FB
:1004B000709128018091290190912A012FBF089500
:1004C0003FB7F8948091220190912301A0912401DB
:1004D000B091250126B5A89B05C02F3F19F00196C4
:1004E000A11DB11D3FBFBA2FA92F982F8827BC018E
:1004F000CD01620F711D811D911D42E0660F771FB6
:10050000881F991F4A95D1F708958F929F92AF92B5
:10051000BF92CF92DF92EF92FF926B017C01D0DF0E
:100520004B015C01C114D104E104F104D9F0E8D01D
:10053000C7DF681979098A099B09683E73408105FC
:10054000910580F321E0C21AD108E108F10888EE94
:10055000880E83E0981EA11CB11CC114D104E104D3
:10056000F10431F7FF90EF90DF90CF90BF90AF9004
:100570009F908F900895789484B5836084BD85B5ED
:10058000836085BDEEE6F0E0808181608083E1E8F4
:10059000F0E082E08083808181608083E0E8F0E0A9
:1005A000808181608083E1EBF0E0808184608083E2
:1005B000E0EBF0E080818160808387E880937A00BF
:1005C0001092C1000895843081F028F48230E9F05F
:1005D0008330F9F00895883071F0893091F08530DA
:1005E000B9F4809180008F7D03C0809180008F7767
:1005F0008093800008958091B0008F778093B00041
:1006000008958091B0008F7DF9CF84B58F7784BD38
:10061000089584B58F7DFBCFCF93DF9390E0FC01ED
:10062000E55BFF4F24918E599F4FFC0184918823F5
:10063000C9F090E0880F991FFC01ED57FF4FA5917D
:10064000B491FC01E758FF4FC591D49161110DC0E1
:100650009FB7F8948C91209582238C9388812823CE
:1006600028839FBFDF91CF910895623051F49FB7E7
:10067000F8943C91822F809583238C93E8812E2BD4
:10068000EFCF8FB7F894EC912E2B2C938FBFEACF3E
:100690001F93CF93DF93282F30E0F901EC5CFF4FDD
:1006A0008491F901E55BFF4FD491F901EE59FF4FB9
:1006B000C491CC23A1F0162F811185DFEC2FF0E03F
:1006C000EE0FFF1FE758FF4FA591B4918FB7F89435
:1006D000EC91111108C0D095DE23DC938FBFDF9120
:1006E000CF911F910895DE2BF8CF089544DFFDDFF1
:1006F000C5DDC0E0D0E009DE2097E9F381DCFBCF67
:100700000895F999FECF81BDF89A992780B508958B
:10071000262FF999FECF1FBA81BD20BD0FB6F894E0
:0E072000FA9AF99A0FBE01960895F894FFCF49
:10072E000C000E000D000C000B00524E524F4D31BE
:06073E003238444352234F
:00000001FF
