:1000000041C05BC05AC0DFC158C057C056C055C0C0
:1000100054C053C052C051C050C04FC04EC04DC05C
:100020008CC14BC04AC049C048C047C046C045C04B
:1000300044C043C000000000240027002A00000044
:100040000000250028002B00040404040404040418
:100050000202020202020303030303030102040873
:100060001020408001020408102001020408102022
:100070000000000800020100000304070000000067
:100080000000000011241FBECFEFD4E0DEBFCDBFC3
:1000900011E0A0E0B1E0EAEDF6E002C005900D92BB
:1000A000A830B107D9F721E0A8E0B1E001C01D9266
:1000B000A332B207E1F799D10EC3A2CF90E0FC01C1
:1000C000E059FF4F2491FC01E45AFF4F3491FC01A9
:1000D000E85BFF4FE491EE23C9F0222339F023308F
:1000E00001F1A8F4213019F1223029F1F0E0EE0FEE
:1000F000FF1FE25CFF4FA591B4918FB7F894EC918C
:10010000611126C030953E233C938FBF0895273060
:10011000A9F02830C9F0243049F7809180008F7D04
:1001200003C0809180008F7780938000DFCF84B5FB
:100130008F7784BDDBCF84B58F7DFBCF8091B000FE
:100140008F778093B000D2CF8091B0008F7DF9CFB0
:100150003E2BDACFCF93DF9390E0FC01E45AFF4FC0
:100160002491885B9F4FFC0184918823C9F090E023
:10017000880F991FFC01EC5CFF4FA591B491FC0125
:10018000E25CFF4FC591D49161110DC09FB7F89407
:100190008C91209582238C938881282328839FBF6C
:1001A000DF91CF910895623051F49FB7F8943C915C
:1001B000822F809583238C93E8812E2BEFCF8FB7EE
:1001C000F894EC912E2B2C938FBFEACF9FB7F89425
:1001D00040911F01509120016091210170912201F5
:1001E00086B5A89B06C08F3F21F04F5F5F4F6F4FD2
:1001F0007F4F9FBF2227342F452F562F280F311DA9
:10020000411D511DA3E0B0E050D208958F929F92FE
:10021000AF92BF92CF92DF92EF92FF924B015C01BF
:10022000D5DF6B017C01D2DF6C197D098E099F0936
:10023000683E734081059105B0F321E0821A910870
:10024000A108B10888EEC80E83E0D81EE11CF11C9D
:1002500081149104A104B10431F7FF90EF90DF9075
:10026000CF90BF90AF909F908F9008952FB7F89444
:1002700060911B0170911C0180911D0190911E01E4
:100280002FBF08951F93CF93DF93EC01162F6623A2
:1002900071F060E08BE012DF64E670E080E090E0F7
:1002A000B5DF61E08BE056DF60E08BE007DF61E007
:1002B000C0FF60E088E002DF61E0C1FF60E089E04C
:1002C000FDDE61E0C2FF60E08AE0F8DE61E0C3FFCE
:1002D00060E08FE0F3DE61E0C4FF60E080E1EEDE2D
:1002E00080910801909109018C179D0769F0209772
:1002F00069F06C2F90E080E0CAD1D0930901C093DF
:1003000008011092190102C02097D9F7112341F07A
:1003100068EC70E080E090E079DF62E08BE01ADF6B
:1003200064EF71E080E090E071DFD0931701C0933B
:100330001601DF91CF911F9108951F920F920FB672
:100340000F9211242F933F938F939F93AF93BF935B
:1003500080911B0190911C01A0911D01B0911E0183
:1003600030911A0126E6230F2D3728F029EE230FAE
:100370000196A11DB11D20931A0180931B0190933A
:100380001C01A0931D01B0931E0180911F0190914B
:100390002001A0912101B09122010196A11DB11D62
:1003A00080931F0190932001A0932101B09322011B
:1003B000BF91AF919F918F913F912F910F900FBE61
:1003C0000F901F9018951F920F920FB60F92112445
:1003D0008F9383B185FB882780F9809315018F91D6
:1003E0000F900FBE0F901F901895789484B582607F
:1003F00084BD84B5816084BD85B5826085BD85B5C9
:10040000816085BD80916E00816080936E00109246
:1004100081008091810082608093810080918100C1
:100420008160809381008091800081608093800052
:100430008091B10084608093B1008091B0008160B0
:100440008093B00080917A00846080937A008091DC
:100450007A00826080937A0080917A008160809334
:100460007A0080917A00806880937A001092C100AF
:100470001AB860E08BE022DE61E08BE06BDE60E0CA
:100480008DE068DE61E088E065DE61E089E062DEE3
:1004900061E08AE05FDE61E08FE05CDE61E080E1E8
:1004A00059DE61E08EE056DE60E08EE007DE90E02F
:1004B00080E0E5D090E09093090180930801409797
:1004C00024F0109209011092080180910801909186
:1004D0000901009719F421E02093190160E0D2DEB0
:1004E00062E08BE037DE64EF71E080E090E08EDE6A
:1004F00080916B00806280936B00D89A8091680035
:1005000081608093680080E0E82E80E0F82EC1E0F2
:1005100080911901882391F110921801109217010E
:100520001092160180911501882389F089B11092EB
:10053000150120911301309114012830310589F4FF
:100540009FEF980F9F3040F461E090E09BDEE11454
:10055000F104F1F255DDDCCF109214011092130179
:10056000F6CFF901E050FF4F90818913F5CF2F5F4F
:100570003F4F3093140120931301E9CF8091120172
:100580001B9930C0C093180181110BC06FDE6093BE
:100590000E0170930F018093100190931101C0938D
:1005A000120164DE00910E0110910F0120911001E3
:1005B00030911101601B710B820B930B613D7740F1
:1005C0008105910550F0C093190161E090E080E051
:1005D00059DE1092180110921201609118018EE0FC
:1005E0006DDDB5CF882321F0109218011092120111
:1005F00000911601109117011016110674F78090E2
:100600000A0190900B01A0900C01B0900D01811493
:100610009104A104B10441F4C093180127DE6E5C7B
:100620007F4F8F4F9F4F19C021DE86169706A80671
:10063000B90698F680911801882371F31092180179
:10064000015011091093170100931601012B71F04D
:100650000DDE66507F4F8F4F9F4F60930A0170935E
:100660000B0180930C0190930D01B7CF10920A01FA
:1006700010920B0110920C0110920D01AECFF9995E
:10068000FECF92BD81BDF89A992780B50895262F97
:10069000F999FECF1FBA92BD81BD20BD0FB6F89467
:1006A000FA9AF99A0FBE0196089509D0A59F900D68
:1006B000B49F900DA49F800D911D11240895A29FB9
:1006C000B001B39FC001A39F01D0B29F700D811DE7
:0A06D0001124911D0895F894FFCF46
:0806DA00524E524F4D2B342308
:00000001FF
