:100000000C945C000C9479000C9479000C94100210
:100010000C9479000C9479000C9479000C9479007C
:100020000C9479000C9479000C9479000C9479006C
:100030000C9479000C9479000C9479000C9479005C
:100040000C94CA010C9479000C9479000C947900FA
:100050000C9479000C9479000C9479000C9479003C
:100060000C9479000C947900000000002400270013
:100070002A0000000000250028002B0004040404CE
:100080000404040402020202020203030303030342
:10009000010204081020408001020408102001021F
:1000A00004081020000000080002010000030407FB
:1000B000000000000000000011241FBECFEFD8E0B8
:1000C000DEBFCDBF11E0A0E0B1E0EAE6F7E002C09C
:1000D00005900D92A830B107D9F721E0A8E0B1E072
:1000E00001C01D92A332B207E1F70E9422020C94D4
:1000F000B3030C94000090E0FC01EC55FF4F2491F9
:10010000FC01E057FF4F3491FC01E458FF4FE491AC
:10011000EE23C9F0222339F0233001F1A8F4213075
:1001200019F1223029F1F0E0EE0FFF1FEE58FF4FDA
:10013000A591B4918FB7F894EC91611126C03095D8
:100140003E233C938FBF08952730A9F02830C9F093
:10015000243049F7809180008F7D03C0809180001A
:100160008F7780938000DFCF84B58F7784BDDBCF1E
:1001700084B58F7DFBCF8091B0008F778093B000E6
:10018000D2CF8091B0008F7DF9CF3E2BDACFCF93C5
:10019000DF9390E0FC01E057FF4F249184589F4F7C
:1001A000FC0184918823C9F090E0880F991FFC011D
:1001B000E859FF4FA591B491FC01EE58FF4FC5914E
:1001C000D49161110DC09FB7F8948C912095822332
:1001D0008C938881282328839FBFDF91CF91089536
:1001E000623051F49FB7F8943C91822F809583231D
:1001F0008C93E8812E2BEFCF8FB7F894EC912E2BB8
:100200002C938FBFEACF9FB7F89440911F01509174
:100210002001609121017091220186B5A89B06C042
:100220008F3F21F04F5F5F4F6F4F7F4F9FBF222760
:10023000342F452F562F280F311D411D511DA3E08E
:10024000B0E00E94990308958F929F92AF92BF925F
:10025000CF92DF92EF92FF924B015C010E9403016B
:100260006B017C010E9403016C197D098E099F09B5
:10027000683E734081059105A8F321E0821A910838
:10028000A108B10888EEC80E83E0D81EE11CF11C5D
:1002900081149104A104B10429F7FF90EF90DF903D
:1002A000CF90BF90AF909F908F9008952FB7F89404
:1002B00060911B0170911C0180911D0190911E01A4
:1002C0002FBF08951F93CF93DF93EC01162F662362
:1002D00091F060E08BE00E947B0064E670E080E0DB
:1002E00090E00E94240161E08BE00E94C70060E082
:1002F0008BE00E947B0061E0C0FF60E088E00E942C
:100300007B0061E0C1FF60E089E00E947B0061E06A
:10031000C2FF60E08AE00E947B0061E0C3FF60E012
:100320008FE00E947B0061E0C4FF60E080E10E94FA
:100330007B0080910801909109018C179D0771F055
:10034000209771F06C2F90E080E00E948B03D09397
:100350000901C09308011092190102C02097D9F732
:10036000112351F068EC70E080E090E00E942401DD
:1003700062E08BE00E94C70064EF71E080E090E0F3
:100380000E942401D0931701C0931601DF91CF91F1
:100390001F9108951F920F920FB60F9211242F9361
:1003A0003F938F939F93AF93BF9380911B01909145
:1003B0001C01A0911D01B0911E0130911A0126E689
:1003C000230F2D3728F029EE230F0196A11DB11D13
:1003D00020931A0180931B0190931C01A0931D018F
:1003E000B0931E0180911F0190912001A0912101E5
:1003F000B09122010196A11DB11D80931F01909320
:100400002001A0932101B0932201BF91AF919F9150
:100410008F913F912F910F900FBE0F901F901895C5
:100420001F920F920FB60F9211248F9383B185FB09
:10043000882780F9809315018F910F900FBE0F9040
:100440001F901895789484B5826084BD84B58160CE
:1004500084BD85B5826085BD85B5816085BD80918F
:100460006E00816080936E00109281008091810007
:1004700082608093810080918100816080938100FF
:10048000809180008160809380008091B1008460C1
:100490008093B1008091B00081608093B000809122
:1004A0007A00846080937A0080917A0082608093E1
:1004B0007A0080917A00816080937A0080917A003E
:1004C000806880937A001092C1001AB860E08BE0D7
:1004D0000E947B0061E08BE00E94C70060E08DE03D
:1004E0000E94C70061E088E00E94C70061E089E0E7
:1004F0000E94C70061E08AE00E94C70061E08FE0CF
:100500000E94C70061E080E10E94C70061E08EE0C8
:100510000E94C70060E08EE00E947B0090E080E0D7
:100520000E94830390E09093090180930801409713
:1005300024F0109209011092080180910801909115
:100540000901009719F421E02093190160E00E944D
:10055000620162E08BE00E94C70064EF71E080E01E
:1005600090E00E94240180916B00806280936B0078
:10057000D89A8091680081608093680080E0E82EBE
:1005800080E0F82EC1E0809119018823A1F110923A
:1005900018011092170110921601809115018823FD
:1005A00091F089B11092150120911301309114013D
:1005B0002830310599F49FEF980F9F3050F461E097
:1005C00090E00E946201E114F104E9F20E9400004F
:1005D000DACF1092140110921301F5CFF901E05017
:1005E000FF4F90818913F5CF2F5F3F4F3093140158
:1005F00020931301E8CF809112011B9934C0C0935E
:10060000180181110CC00E94560160930E01709375
:100610000F018093100190931101C09312010E9469
:10062000560100910E0110910F012091100130919F
:100630001101601B710B820B930B613D77408105AB
:10064000910558F0C093190161E090E080E00E94AC
:1006500062011092180110921201609118018EE04F
:100660000E947B00B0CF882321F0109218011092D5
:1006700012010091160110911701101611066CF766
:1006800080900A0190900B01A0900C01B0900D0198
:1006900081149104A104B10449F4C09318010E948B
:1006A00056016E5C7F4F8F4F9F4F1BC00E945601BB
:1006B00086169706A806B90680F680911801882349
:1006C00061F3109218010150110910931701009362
:1006D0001601012B79F00E94560166507F4F8F4F13
:1006E0009F4F60930A0170930B0180930C019093CC
:1006F0000D01B3CF10920A0110920B0110920C0160
:1007000010920D01AACFF999FECF92BD81BDF89A42
:10071000992780B50895262FF999FECF1FBA92BD6B
:1007200081BD20BD0FB6F894FA9AF99A0FBE0196D2
:1007300008950E94A403A59F900DB49F900DA49FBF
:10074000800D911D11240895A29FB001B39FC00197
:10075000A39F700D811D1124911DB29F700D811DED
:0A0760001124911D0895F894FFCFB5
:08076A00524E524F4D2B342377
:00000001FF
