:1000000041C05BC05AC0B8C158C057C056C055C0E7
:1000100054C053C052C051C050C04FC04EC04DC05C
:1000200065C14BC04AC049C048C047C046C045C072
:1000300044C043C000000000240027002A00000044
:100040000000250028002B00040404040404040418
:100050000202020202020303030303030102040873
:100060001020408001020408102001020408102022
:100070000000000800020100000304070000000067
:100080000000000011241FBECFEFD4E0DEBFCDBFC3
:1000900011E0A0E0B1E0E8E6F5E002C005900D92C5
:1000A000A630B107D9F721E0A6E0B1E001C01D926A
:1000B000A231B207E1F772D155C2A2CF90E0FC01A4
:1000C000E059FF4F2491FC01E45AFF4F3491FC01A9
:1000D000E85BFF4FE491EE23C9F0222339F023308F
:1000E00001F1A8F4213019F1223029F1F0E0EE0FEE
:1000F000FF1FE25CFF4FA591B4918FB7F894EC918C
:10010000611126C030953E233C938FBF0895273060
:10011000A9F02830C9F0243049F7809180008F7D04
:1001200003C0809180008F7780938000DFCF84B5FB
:100130008F7784BDDBCF84B58F7DFBCF8091B000FE
:100140008F778093B000D2CF8091B0008F7DF9CFB0
:100150003E2BDACFCF93DF9390E0FC01E45AFF4FC0
:100160002491885B9F4FFC0184918823D1F090E01B
:10017000880F991FFC01EC5CFF4FA591B491FC0125
:10018000E25CFF4FC591D49161110EC09FB7F89406
:100190008C91E22FE0958E238C932881E223E883D3
:1001A0009FBFDF91CF9108958FB7F894EC91E22B28
:1001B000EC938FBFF6CF9FB7F89440910B0150910D
:1001C0000C0160910D0170910E0186B5A89B06C0CF
:1001D0008F3F21F04F5F5F4F6F4F7F4F9FBF2227B1
:1001E000342F452F562F280F311D411D511DA3E0DF
:1001F000B0E0A2D108958F929F92AF92BF92CF921A
:10020000DF92EF92FF924B015C01D5DF6B017C0125
:10021000D2DF6C197D098E099F09683E7340810504
:100220009105B0F321E0821A9108A108B10888EE87
:10023000C80E83E0D81EE11CF11C81149104A104B6
:10024000B10431F7FF90EF90DF90CF90BF90AF9067
:100250009F908F9008950F931F93CF93DF93EC019E
:1002600010E000E0C017D1079CF061E08EE026DFCF
:100270006EE170E080E090E0BEDF60E08EE01EDFC7
:100280006AEF70E080E090E0B6DF0F5F1F4FEACFCB
:1002900068EC70E080E090E0AEDF61E0C0FF60E01D
:1002A00089E00CDF61E0C1FF60E08AE007DF90E0F9
:1002B00080E02CD18C171D0621F06C2F90E080E09F
:1002C0002DD160E08BE0FADE61E08BE043DF62E39A
:1002D00070E080E090E08FDF61E08BE0EFDE60E0D7
:1002E0008BE0DF91CF911F910F9134CF1F920F922E
:1002F0000FB60F9211242F933F938F939F93AF9339
:10030000BF938091070190910801A0910901B091DC
:100310000A013091060126E6230F2D3728F029EE39
:10032000230F0196A11DB11D2093060180930701A3
:1003300090930801A0930901B0930A0180910B01E9
:1003400090910C01A0910D01B0910E010196A11D9B
:10035000B11D80930B0190930C01A0930D01B093FC
:100360000E01BF91AF919F918F913F912F910F906F
:100370000FBE0F901F9018951F920F920FB60F92FD
:1003800011248F9383B185FB882780F98093110115
:100390008F910F900FBE0F901F901895789484B591
:1003A000826084BD84B5816084BD85B5826085BD71
:1003B00085B5816085BD80916E00816080936E00FF
:1003C00010928100809181008260809381008091F1
:1003D00081008160809381008091800081608093A2
:1003E00080008091B10084608093B1008091B00062
:1003F00081608093B00080917A00846080937A005D
:1004000080917A00826080937A0080917A00816086
:1004100080937A0080917A00806880937A001092AD
:10042000C1001AB860E08DE095DE61E088E092DE00
:1004300061E089E08FDE61E08AE08CDE61E08FE0E0
:1004400089DE61E080E186DE60E08DE083DE60E0F1
:100450008BE080DE61E08EE07DDE90E080E056D0D3
:1004600090E08530910564F0D0E0C0E060E0CE011E
:1004700055D02196C11582E0D807C1F790E080E001
:10048000EADE80916B00806280936B00D89A809145
:100490006800816080936800C0E0D0E001E010E077
:1004A00080911101882301F129B1109211018091ED
:1004B0000F0190911001FC01E050FF4F3081231398
:1004C0001EC001969093100180930F01069761F46E
:1004D000809111018823E1F389B19FEC980F94304A
:1004E00038F48153990BB7DE2097D1F289DDD8CF4C
:1004F0008D3439F41093100100930F01F5CF2D3492
:10050000C9F31092100110920F01EECFF999FECFAE
:1005100092BD81BDF89A992780B50895262FF99943
:10052000FECF1FBA92BD81BD20BD0FB6F894FA9AD6
:10053000F99A0FBE0196089509D0A59F900DB49F1A
:10054000900DA49F800D911D11240895A29FB001CC
:10055000B39FC001A39F01D0B29F700D811D1124D4
:08056000911D0895F894FFCFEE
:060568004D4F524E5240BF
:00000001FF
