:100000000C945C000C9479000C9479000C94EA0137
:100010000C9479000C9479000C9479000C9479007C
:100020000C9479000C9479000C9479000C9479006C
:100030000C9479000C9479000C9479000C9479005C
:100040000C94A4010C9479000C9479000C94790020
:100050000C9479000C9479000C9479000C9479003C
:100060000C9479000C947900000000002400270013
:100070002A0000000000250028002B0004040404CE
:100080000404040402020202020203030303030342
:10009000010204081020408001020408102001021F
:1000A00004081020000000080002010000030407FB
:1000B000000000000000000011241FBECFEFD8E0B8
:1000C000DEBFCDBF11E0A0E0B1E0E8EEF5E002C098
:1000D00005900D92A630B107D9F721E0A6E0B1E076
:1000E00001C01D92A231B207E1F70E94FC010C94FD
:1000F000F2020C94000090E0FC01EC55FF4F2491BB
:10010000FC01E057FF4F3491FC01E458FF4FE491AC
:10011000EE23C9F0222339F0233001F1A8F4213075
:1001200019F1223029F1F0E0EE0FFF1FEE58FF4FDA
:10013000A591B4918FB7F894EC91611126C03095D8
:100140003E233C938FBF08952730A9F02830C9F093
:10015000243049F7809180008F7D03C0809180001A
:100160008F7780938000DFCF84B58F7784BDDBCF1E
:1001700084B58F7DFBCF8091B0008F778093B000E6
:10018000D2CF8091B0008F7DF9CF3E2BDACFCF93C5
:10019000DF9390E0FC01E057FF4F249184589F4F7C
:1001A000FC0184918823D1F090E0880F991FFC0115
:1001B000E859FF4FA591B491FC01EE58FF4FC5914E
:1001C000D49161110EC09FB7F8948C91E22FE09505
:1001D0008E238C932881E223E8839FBFDF91CF9108
:1001E00008958FB7F894EC91E22BEC938FBFF6CF84
:1001F0009FB7F89440910B0150910C0160910D0153
:1002000070910E0186B5A89B06C08F3F21F04F5F0D
:100210005F4F6F4F7F4F9FBF2227342F452F562FA1
:10022000280F311D411D511DA3E0B0E00E94D802EE
:1002300008958F929F92AF92BF92CF92DF92EF92EA
:10024000FF924B015C010E94F8006B017C010E944F
:10025000F8006C197D098E099F09683E734081057D
:100260009105A8F321E0821A9108A108B10888EE4F
:10027000C80E83E0D81EE11CF11C81149104A10476
:10028000B10429F7FF90EF90DF90CF90BF90AF902F
:100290009F908F9008950F931F93CF93DF93EC015E
:1002A00010E000E0C017D107BCF061E08EE00E94D2
:1002B0007B006EE170E080E090E00E94190160E058
:1002C0008EE00E947B006AEF70E080E090E00E9488
:1002D00019010F5F1F4FE6CF68EC70E080E090E0FF
:1002E0000E94190161E0C0FF60E089E00E947B008C
:1002F00061E0C1FF60E08AE00E947B0090E080E066
:100300000E94C2028C171D0629F06C2F90E080E03D
:100310000E94CA0260E08BE00E947B0061E08BE0FB
:100320000E94C70062E370E080E090E00E94190143
:1003300061E08BE00E947B0060E08BE0DF91CF9179
:100340001F910F910C94C7001F920F920FB60F923E
:1003500011242F933F938F939F93AF93BF938091DB
:10036000070190910801A0910901B0910A01309113
:10037000060126E6230F2D3728F029EE230F0196DC
:10038000A11DB11D209306018093070190930801E0
:10039000A0930901B0930A0180910B0190910C0187
:1003A000A0910D01B0910E010196A11DB11D809388
:1003B0000B0190930C01A0930D01B0930E01BF911E
:1003C000AF919F918F913F912F910F900FBE0F9002
:1003D0001F9018951F920F920FB60F9211248F93B2
:1003E00083B185FB882780F9809311018F910F904D
:1003F0000FBE0F901F901895789484B5826084BDCD
:1004000084B5816084BD85B5826085BD85B5816018
:1004100085BD80916E00816080936E001092810096
:100420008091810082608093810080918100816051
:100430008093810080918000816080938000809112
:10044000B10084608093B1008091B000816080939E
:10045000B00080917A00846080937A0080917A0065
:10046000826080937A0080917A00816080937A0024
:1004700080917A00806880937A001092C1001AB847
:1004800060E08DE00E94C70061E088E00E94C70044
:1004900061E089E00E94C70061E08AE00E94C70035
:1004A00061E08FE00E94C70061E080E10E94C70028
:1004B00060E08DE00E94C70060E08BE00E94C70012
:1004C00061E08EE00E94C70090E080E00E94C202DE
:1004D00090E0853091056CF0D0E0C0E060E0CE01A6
:1004E0000E94CA022196C11584E0D807B9F790E0AE
:1004F00080E00E944B0180916B00806280936B00D2
:10050000D89A80916800816080936800C0E0D0E054
:1005100001E010E080911101882309F129B11092C6
:10052000110180910F0190911001FC01E050FF4FEB
:100530003081231320C001969093100180930F0106
:10054000069769F4809111018823E1F389B19FEC4A
:10055000980F943048F48153990B0E944B012097D7
:10056000C9F20E940000D6CF8D3439F410931001E7
:1005700000930F01F4CF2D34C9F3109210011092A3
:100580000F01EDCFF999FECF92BD81BDF89A992761
:1005900080B50895262FF999FECF1FBA92BD81BD6F
:1005A00020BD0FB6F894FA9AF99A0FBE01960895F5
:1005B0000E94E302A59F900DB49F900DA49F800D13
:1005C000911D11240895A29FB001B39FC001A39F64
:1005D000700D811D1124911DB29F700D811D11247C
:0805E000911D0895F894FFCF6E
:0605E8004D4F524E52403F
:00000001FF
