:1000000041C05BC05AC0D8C158C057C056C055C0C7
:1000100054C053C052C051C050C04FC04EC04DC05C
:1000200081C14BC04AC049C048C047C046C045C056
:1000300044C043C000000000240027002A00000044
:100040000000250028002B00040404040404040418
:100050000202020202020303030303030102040873
:100060001020408001020408102001020408102022
:100070000000000800020100000304070000000067
:100080000000000011241FBECFEFD4E0DEBFCDBFC3
:1000900011E0A0E0B1E0E0EBF6E002C005900D92C7
:1000A000AC30B107D9F721E0ACE0B1E001C01D925E
:1000B000A732B207E1F792D1F9C2A2CF90E0FC01DA
:1000C000E059FF4F2491FC01E45AFF4F3491FC01A9
:1000D000E85BFF4FE491EE23C9F0222339F023308F
:1000E00001F1A8F4213019F1223029F1F0E0EE0FEE
:1000F000FF1FE25CFF4FA591B4918FB7F894EC918C
:10010000611126C030953E233C938FBF0895273060
:10011000A9F02830C9F0243049F7809180008F7D04
:1001200003C0809180008F7780938000DFCF84B5FB
:100130008F7784BDDBCF84B58F7DFBCF8091B000FE
:100140008F778093B000D2CF8091B0008F7DF9CFB0
:100150003E2BDACFCF93DF9390E0FC01E45AFF4FC0
:100160002491885B9F4FFC0184918823D1F090E01B
:10017000880F991FFC01EC5CFF4FA591B491FC0125
:10018000E25CFF4FC591D49161110EC09FB7F89406
:100190008C91E22FE0958E238C932881E223E883D3
:1001A0009FBFDF91CF9108958FB7F894EC91E22B28
:1001B000EC938FBFF6CF3FB7F894809111019091E7
:1001C0001201A0911301B091140126B5A89B05C09E
:1001D0002F3F19F00196A11DB11D3FBFBA2FA92FC6
:1001E000982F8827BC01CD01620F711D811D911DC3
:1001F00042E0660F771F881F991F4A95D1F708952F
:100200008F929F92AF92BF92CF92DF92EF92FF9226
:100210004B015C01D0DF6B017C01CDDF6C197D09E6
:100220008E099F09683E734081059105B0F321E076
:10023000821A9108A108B10888EEC80E83E0D81E82
:10024000E11CF11C81149104A104B10431F7FF9069
:10025000EF90DF90CF90BF90AF909F908F900895D8
:100260002FB7F89460910D0170910E0180910F01EC
:10027000909110012FBF08951F93CF93DF93EC014E
:10028000162F662371F060E08BE018DF64E670E003
:1002900080E090E0B5DF61E08BE05CDF60E08BE068
:1002A0000DDF61E0C0FF60E089E008DF61E0C1FFD1
:1002B00060E08AE003DF61E0C2FF60E08FE0FEDE25
:1002C00061E0C3FF60E080E1F9DE80911E01909162
:1002D0001F018C179D0769F0209769F06C2F90E043
:1002E00080E0D6D1D0931F01C0931E011092260149
:1002F00002C02097D9F7112341F068EC70E080E04C
:1003000090E07EDF60E08BE025DF64EF71E080E06D
:1003100090E076DFD0932401C0932301DF91CF9149
:100320001F9108951F920F920FB60F9211242F93D1
:100330003F938F939F93AF93BF9380910D019091C3
:100340000E01A0910F01B091100130910C0123E03A
:10035000230F2D3758F50196A11DB11D20930C01D7
:1003600080930D0190930E01A0930F01B0931001A3
:100370008091110190911201A0911301B09114018B
:100380000196A11DB11D8093110190931201A093BC
:100390001301B0931401BF91AF919F918F913F9141
:1003A0002F910F900FBE0F901F90189526E8230FE6
:1003B0000296A11DB11DD2CF1F920F920FB60F92C0
:1003C00011248F9383B185FB882780F980932201C4
:1003D0008F910F900FBE0F901F901895789484B551
:1003E000826084BD84B5816084BD85B5826085BD31
:1003F00085B5816085BD80916E00816080936E00BF
:1004000010928100809181008260809381008091B0
:100410008100816080938100809180008160809361
:1004200080008091B10084608093B1008091B00021
:1004300081608093B00080917A00846080937A001C
:1004400080917A00826080937A0080917A00816046
:1004500080937A0080917A00806880937A0010926D
:10046000C1001AB860E08BE029DE61E08BE072DE4B
:1004700060E08DE06FDE61E089E06CDE61E08AE0E3
:1004800069DE61E08FE066DE61E080E163DE61E00D
:100490008EE060DE60E08CE05DDE60E08EE00EDE2F
:1004A00090E080E0EDD090E090931F0180931E01DA
:1004B000409724F010921F0110921E0180911E019E
:1004C00090911F01009719F421E02093260160E02C
:1004D000D3DE60E08BE03EDE64EF71E080E090E030
:1004E0008FDE80916B00806280936B00D89A809140
:1004F000680081608093680080E0E82E80E0F82E3C
:10050000C1E0809126018823D1F11092250110923B
:1005100024011092230180912201882389F089B15E
:100520001092220120912001309121012C303105BF
:10053000C9F49FEF980F9F3080F461E090E09CDE5B
:100540001B9906C060E080911E0190911F0194DE0E
:10055000E114F104B1F254DDD4CF109221011092D4
:100560002001EECFF901E050FF4F90818913F5CFC4
:100570002F5F3F4F3093210120932001E1CF8091E5
:100580001D011C9930C0C093250181110BC068DE8C
:100590006093190170931A0180931B0190931C01C1
:1005A000C0931D015DDE0091190110911A01209187
:1005B0001B0130911C01601B710B820B930B613D81
:1005C00077408105910550F0C093260161E090E0ED
:1005D00080E052DE1092250110921D0160912501EC
:1005E0008EE06CDDB5CF882321F0109225011092AA
:1005F0001D0100912301109124011016110674F7BA
:100600008090150190901601A0901701B0901801EC
:1006100081149104A104B10441F4C093250120DEAA
:100620006E5C7F4F8F4F9F4F19C01ADE861697065C
:10063000A806B90698F680912501882371F31092D7
:100640002501015011091093240100932301012B6E
:1006500071F006DE66507F4F8F4F9F4F60931501FC
:10066000709316018093170190931801B7CF1092E1
:100670001501109216011092170110921801AECFB9
:10068000F999FECF92BD81BDF89A992780B508955A
:10069000262FF999FECF1FBA92BD81BD20BD0FB69E
:1006A000F894FA9AF99A0FBE01960895F894FFCF3C
:0C06B000524E524F4D3132384443522319
:00000001FF
