:100000000C945C000C9479000C9479000C940D0213
:100010000C9479000C9479000C9479000C9479007C
:100020000C9479000C9479000C9479000C9479006C
:100030000C9479000C9479000C9479000C9479005C
:100040000C94C3010C9479000C9479000C94790001
:100050000C9479000C9479000C9479000C9479003C
:100060000C9479000C947900000000002400270013
:100070002A0000000000250028002B0004040404CE
:100080000404040402020202020203030303030342
:10009000010204081020408001020408102001021F
:1000A00004081020000000080002010000030407FB
:1000B000000000000000000011241FBECFEFD8E0B8
:1000C000DEBFCDBF11E0A0E0B1E0EAE4F7E002C09E
:1000D00005900D92AA30B107D9F721E0AAE0B1E06E
:1000E00001C01D92A532B207E1F70E941F020C94D5
:1000F000A3030C94000090E0FC01EC55FF4F249109
:10010000FC01E057FF4F3491FC01E458FF4FE491AC
:10011000EE23C9F0222339F0233001F1A8F4213075
:1001200019F1223029F1F0E0EE0FFF1FEE58FF4FDA
:10013000A591B4918FB7F894EC91611126C03095D8
:100140003E233C938FBF08952730A9F02830C9F093
:10015000243049F7809180008F7D03C0809180001A
:100160008F7780938000DFCF84B58F7784BDDBCF1E
:1001700084B58F7DFBCF8091B0008F778093B000E6
:10018000D2CF8091B0008F7DF9CF3E2BDACFCF93C5
:10019000DF9390E0FC01E057FF4F249184589F4F7C
:1001A000FC0184918823D1F090E0880F991FFC0115
:1001B000E859FF4FA591B491FC01EE58FF4FC5914E
:1001C000D49161110EC09FB7F8948C91E22FE09505
:1001D0008E238C932881E223E8839FBFDF91CF9108
:1001E00008958FB7F894EC91E22BEC938FBFF6CF84
:1001F0003FB7F89480910F0190911001A0911101E7
:10020000B091120126B5A89B05C02F3F19F00196A9
:10021000A11DB11D3FBFBA2FA92F982F8827BC0160
:10022000CD01620F711D811D911D42E0660F771F88
:10023000881F991F4A95D1F708958F929F92AF9288
:10024000BF92CF92DF92EF92FF924B015C010E942E
:10025000F8006B017C010E94F8006C197D098E0981
:100260009F09683E734081059105A8F321E0821A39
:100270009108A108B10888EEC80E83E0D81EE11CE1
:10028000F11C81149104A104B10429F7FF90EF90AF
:10029000DF90CF90BF90AF909F908F9008952FB731
:1002A000F89460910B0170910C0180910D01909177
:1002B0000E012FBF08951F93CF93DF93EC01162FEC
:1002C000662391F060E08BE00E947B0064E670E0C2
:1002D00080E090E00E941D0161E08BE00E94C70079
:1002E00060E08BE00E947B0061E0C0FF60E088E09E
:1002F0000E947B0061E0C1FF60E089E00E947B001A
:1003000061E0C2FF60E08AE00E947B0061E0C3FF21
:1003100060E08FE00E947B0061E0C4FF60E080E16C
:100320000E947B0080911C0190911D018C179D07FC
:1003300071F0209771F06C2F90E080E00E9495039F
:10034000D0931D01C0931C011092240102C020977C
:10035000D9F7112351F068EC70E080E090E00E9442
:100360001D0160E08BE00E94C70064EF71E080E057
:1003700090E00E941D01D0932201C0932101DF91E2
:10038000CF911F9108951F920F920FB60F921124D3
:100390002F933F938F939F93AF93BF9380910B01C4
:1003A00090910C01A0910D01B0910E0130910A01C4
:1003B00023E0230F2D3758F50196A11DB11D209381
:1003C0000A0180930B0190930C01A0930D01B0934F
:1003D0000E0180910F0190911001A0911101B09137
:1003E00012010196A11DB11D80930F019093100180
:1003F000A0931101B0931201BF91AF919F918F9182
:100400003F912F910F900FBE0F901F90189526E8E7
:10041000230F0296A11DB11DD2CF1F920F920FB6CE
:100420000F9211248F9383B185FB882780F98093E5
:1004300020018F910F900FBE0F901F901895789408
:1004400084B5826084BD84B5816084BD85B58260D9
:1004500085BD85B5816085BD80916E00816080938A
:100460006E001092810080918100826080938100F3
:100470008091810081608093810080918000816003
:10048000809380008091B10084608093B10080915E
:10049000B00081608093B00080917A008460809386
:1004A0007A0080917A00826080937A0080917A004D
:1004B000816080937A0080917A00806880937A00CE
:1004C0001092C1001AB860E08BE00E947B0061E0EE
:1004D0008BE00E94C70060E08DE00E94C70061E0F1
:1004E00088E00E94C70061E089E00E94C70061E0E7
:1004F0008AE00E94C70061E08FE00E94C70061E0CF
:1005000080E10E94C70061E08EE00E94C70060E0C9
:100510008CE00E94C70060E08EE00E947B0090E0CB
:1005200080E00E948D0390E090931D0180931C0158
:10053000409724F010921D0110921C0180911C0123
:1005400090911D01009719F421E02093240160E0AF
:100550000E945B0160E08BE00E94C70064EF71E0E5
:1005600080E090E00E941D0180916B00806280938A
:100570006B00D89A8091680081608093680080E069
:10058000E82E80E0F82EC1E0809124018823E9F173
:1005900010922301109222011092210180912001DA
:1005A000882391F089B11092200120911E01309191
:1005B0001F0129303105E1F49FEF980F9F3098F427
:1005C00061E090E00E945B011B9907C060E08091B0
:1005D0001C0190911D010E945B01E114F104A1F244
:1005E0000E940000D1CF10921F0110921E01ECCF8B
:1005F000F901E050FF4F90818913F5CF2F5F3F4FF6
:1006000030931F0120931E01DFCF80911B011C99A5
:1006100034C0C093230181110CC00E944F0160932C
:100620001701709318018093190190931A01C093D8
:100630001B010E944F010091170110911801209198
:10064000190130911A01601B710B820B930B613DF4
:1006500077408105910558F0C093240161E090E056
:1006600080E00E945B011092230110921B016091B7
:1006700023018EE00E947B00B0CF882321F01092EE
:10068000230110921B0100912101109122011016EB
:1006900011066CF78090130190901401A090150141
:1006A000B090160181149104A104B10449F4C093DF
:1006B00023010E944F016E5C7F4F8F4F9F4F1BC0E5
:1006C0000E944F0186169706A806B90680F680910B
:1006D0002301882361F31092230101501109109323
:1006E000220100932101012B79F00E944F016650F5
:1006F0007F4F8F4F9F4F609313017093140180932E
:10070000150190931601B3CF1092130110921401AA
:100710001092150110921601AACFF999FECF92BD41
:1007200081BDF89A992780B50895262FF999FECFB3
:100730001FBA92BD81BD20BD0FB6F894FA9AF99AFE
:0A0740000FBE01960895F894FFCF54
:0A074A00524E524F4D313238230059
:00000001FF
