:1000000041C05BC05AC0DDC158C057C056C055C0C2
:1000100054C053C052C051C050C04FC04EC04DC05C
:1000200086C14BC04AC049C048C047C046C045C051
:1000300044C043C000000000240027002A00000044
:100040000000250028002B00040404040404040418
:100050000202020202020303030303030102040873
:100060001020408001020408102001020408102022
:100070000000000800020100000304070000000067
:100080000000000011241FBECFEFD2E0DEBFCDBFC5
:1000900011E0A0E0B1E0E0ECF6E002C005900D92C6
:1000A000AA30B107D9F721E0AAE0B1E001C01D9262
:1000B000A532B207E1F797D101C3A2CF90E0FC01CE
:1000C000E059FF4F2491FC01E45AFF4F3491FC01A9
:1000D000E85BFF4FE491EE23C9F0222339F023308F
:1000E00001F1A8F4213019F1223029F1F0E0EE0FEE
:1000F000FF1FE25CFF4FA591B4918FB7F894EC918C
:10010000611126C030953E233C938FBF0895273060
:10011000A9F02830C9F0243049F7809180008F7D04
:1001200003C0809180008F7780938000DFCF84B5FB
:100130008F7784BDDBCF84B58F7DFBCF8091B000FE
:100140008F778093B000D2CF8091B0008F7DF9CFB0
:100150003E2BDACFCF93DF9390E0FC01E45AFF4FC0
:100160002491885B9F4FFC0184918823D1F090E01B
:10017000880F991FFC01EC5CFF4FA591B491FC0125
:10018000E25CFF4FC591D49161110EC09FB7F89406
:100190008C91E22FE0958E238C932881E223E883D3
:1001A0009FBFDF91CF9108958FB7F894EC91E22B28
:1001B000EC938FBFF6CF3FB7F89480910F019091E9
:1001C0001001A0911101B091120126B5A89B05C0A4
:1001D0002F3F19F00196A11DB11D3FBFBA2FA92FC6
:1001E000982F8827BC01CD01620F711D811D911DC3
:1001F00042E0660F771F881F991F4A95D1F708952F
:100200008F929F92AF92BF92CF92DF92EF92FF9226
:100210004B015C01D0DF6B017C01CDDF6C197D09E6
:100220008E099F09683E734081059105B0F321E076
:10023000821A9108A108B10888EEC80E83E0D81E82
:10024000E11CF11C81149104A104B10431F7FF9069
:10025000EF90DF90CF90BF90AF909F908F900895D8
:100260002FB7F89460910B0170910C0180910D01F2
:1002700090910E012FBF08951F93CF93DF93EC0150
:10028000162F662371F060E08BE018DF64E670E003
:1002900080E090E0B5DF61E08BE05CDF60E08BE068
:1002A0000DDF61E0C0FF60E088E008DF61E0C1FFD2
:1002B00060E089E003DF61E0C2FF60E08AE0FEDE2B
:1002C00061E0C3FF60E08FE0F9DE61E0C4FF60E061
:1002D00080E1F4DE80911C0190911D018C179D0737
:1002E00069F0209769F06C2F90E080E0D9D1D0932D
:1002F0001D01C0931C011092240102C02097D9F760
:10030000112341F068EC70E080E090E079DF60E07C
:100310008BE020DF64EF71E080E090E071DFD0934C
:100320002201C0932101DF91CF911F9108951F9267
:100330000F920FB60F9211242F933F938F939F9399
:10034000AF93BF9380910B0190910C01A0910D018F
:10035000B0910E0130910A0123E0230F2D3758F59B
:100360000196A11DB11D20930A0180930B0190936A
:100370000C01A0930D01B0930E0180910F0190919B
:100380001001A0911101B09112010196A11DB11DA2
:1003900080930F0190931001A0931101B09312016B
:1003A000BF91AF919F918F913F912F910F900FBE71
:1003B0000F901F90189526E8230F0296A11DB11DDE
:1003C000D2CF1F920F920FB60F9211248F9383B149
:1003D00085FB882780F9809320018F910F900FBEB5
:1003E0000F901F901895789484B5826084BD84B571
:1003F000816084BD85B5826085BD85B5816085BD20
:1004000080916E00816080936E00109281008091D7
:10041000810082608093810080918100816080935F
:100420008100809180008160809380008091B10084
:1004300084608093B1008091B00081608093B000AF
:1004400080917A00846080937A0080917A00826043
:1004500080937A0080917A00816080937A00809105
:100460007A00806880937A001092C1001AB860E028
:100470008BE024DE61E08BE06DDE60E08DE06ADE23
:1004800061E088E067DE61E089E064DE61E08AE0E7
:1004900061DE61E08FE05EDE61E080E15BDE61E015
:1004A0008EE058DE60E08CE055DE60E08EE006DE37
:1004B00090E080E0EDD090E090931D0180931C01CE
:1004C000409724F010921D0110921C0180911C0194
:1004D00090911D01009719F421E02093240160E020
:1004E000CBDE60E08BE036DE64EF71E080E090E030
:1004F00087DE80916B00806280936B00D89A809138
:10050000680081608093680080E0E82E80E0F82E2B
:10051000C1E0809124018823D1F11092230110922F
:1005200022011092210180912001882389F089B154
:100530001092200120911E0130911F0129303105B8
:10054000C9F49FEF980F9F3080F461E090E094DE53
:100550001B9906C060E080911C0190911D018CDE0A
:10056000E114F104B1F24CDDD4CF10921F011092CE
:100570001E01EECFF901E050FF4F90818913F5CFB6
:100580002F5F3F4F30931F0120931E01E1CF8091D9
:100590001B011C9930C0C093230181110BC060DE88
:1005A00060931701709318018093190190931A01B9
:1005B000C0931B0155DE0091170110911801209185
:1005C000190130911A01601B710B820B930B613D75
:1005D00077408105910550F0C093240161E090E0DF
:1005E00080E04ADE1092230110921B0160912301EA
:1005F0008EE064DDB5CF882321F0109223011092A4
:100600001B0100912101109122011016110674F7AF
:100610008090130190901401A0901501B0901601E4
:1006200081149104A104B10441F4C093230118DEA4
:100630006E5C7F4F8F4F9F4F19C012DE8616970654
:10064000A806B90698F680912301882371F31092C9
:100650002301015011091093220100932101012B64
:1006600071F0FEDD66507F4F8F4F9F4F60931301F7
:10067000709314018093150190931601B7CF1092D7
:100680001301109214011092150110921601AECFB1
:10069000F999FECF12BC81BDF89A992780B50895CB
:1006A000262FF999FECF1FBA12BC81BD20BD0FB60F
:1006B000F894FA9AF99A0FBE01960895F894FFCF2C
:0A06C000524E524F4D3132382300E4
:00000001FF
